:020000040800F2
:1000000060070020890100086D1900081D1500080F
:100010006919000845020008652300080000000077
:100020000000000000000000000000004D23000858
:10003000490200080000000049230008512300087D
:10004000A3010008A3010008A3010008A301000800
:10005000A3010008A3010008A3010008A3010008F0
:10006000A3010008A3010008A3010008A3010008E0
:10007000A3010008A3010008A3010008A3010008D0
:10008000A3010008A3010008A3010008A3010008C0
:10009000A3010008A3010008A3010008A3010008B0
:1000A000A3010008A3010008A3010008A3010008A0
:1000B000A3010008A301000859230008A3010008B8
:1000C000A3010008A3010008A3010008A301000880
:1000D000A3010008A3010008A3010008A301000870
:1000E000A3010008A3010008A301000800F002F822
:1000F00000F03AF80AA090E8000C82448344AAF188
:100100000107DA4501D100F02FF8AFF2090EBAE885
:100110000F0013F0010F18BFFB1A43F0010318473B
:100120001834000038340000103A24BF78C878C171
:10013000FAD8520724BF30C830C144BF04680C60ED
:10014000704700000023002400250026103A28BF35
:1001500078C1FBD8520728BF30C148BF0B60704739
:100160001FB51FBD10B510BD00F031F81146FFF7E7
:10017000F7FF02F029FA00F04FF803B4FFF7F2FF9F
:1001800003BC00F057F800000948804709480047C1
:10019000FEE7FEE7FEE7FEE7FEE7FEE7FEE7FEE737
:1001A000FEE7FEE704480549054A064B7047000094
:1001B00055230008ED0000086001002060070020C2
:1001C0006003002060030020704770477047754649
:1001D00000F02CF8AE4605006946534620F00700B3
:1001E000854618B020B5FFF7DDFFBDE820404FF091
:1001F00000064FF000074FF000084FF0000BAC4630
:10020000ACE8C009ACE8C009ACE8C009ACE8C0097A
:1002100021F007018D46704710B50446AFF300800A
:100220002046BDE81040FFF7A8BF00000048704717
:100230005800002001491820ABBEFEE7260002004E
:1002400070470000FEE7000070470000EFF31080E9
:1002500072B600BFFEE70000B0B5044600F024F916
:10026000054640F20000C2F200000078611C18BF91
:10027000044400BF00F018F9401BA042FAD3B0BDFF
:100280002DE9F04F82B00E68002E00F0038140F29D
:100290000C4C41F200424FF6FF7EC4F2010CC4F256
:1002A0000102042700240123C1F2100E4FF0000ABE
:1002B0004FF00009904208BF0327009745E000BFB8
:1002C000012704F00C030F229A402BEA020207FADE
:1002D00003F34FEA9A051A4346F82520D1F804B0F3
:1002E00040F20045C4F201055FEACB322A6854BFF0
:1002F00022EA080242EA08022A606A685FEA8B334F
:1003000054BF22EA080242EA08026A605FEACB238D
:10031000AA6854BF22EA080242EA08025FEA8B2375
:10032000AA60DCF800204FF0010354BF22EA080263
:1003300042EA0802CCF800200E680AF1010A36FAF7
:100340000AF204F1040400F0A58003FA0AF816EAA0
:10035000080FF1D04E68764512DC122E56D8DFE831
:1003600006F0350B45495555555555555555555577
:100370005555554D510000BFD1F80C9046E000BFD7
:100380004FF6FF72C1F2210296420FDC0022C1F249
:10039000110296421AD00022C1F21202964215D0E2
:1003A0000022C1F22102964210D02FE00022C1F2B9
:1003B000220296420AD00022C1F23102964205D0B2
:1003C0000022C1F23202964220D100BF8A684AB1AF
:1003D000012A14BFC0F81480C0F810804FF008093B
:1003E00014E000BF4FF0040910E000BFCA6802F13A
:1003F00008090BE04FF0000908E000BFCA6802F1ED
:10040000040903E0CA6802F10C0900BF224606464F
:10041000BAF1080F24BF203A043637680F259540FB
:1004200027EA050509FA02F22A433260CA79D206A0
:100430007FF582AF41F21803C4F202031A6842F05A
:1004400001021A601A6802F001020192019A40F258
:100450000042C4F20102A2F57E762AF0030256F8A9
:1004600002B040F60002C4F20102904210D040F601
:100470000042C4F2010290423FF422AF41F2000276
:10048000C4F20102009F904208BF022719E700BF93
:10049000002716E702B0BDE8F08F0000002A08BF71
:1004A000090401617047000040F25810C2F20000D8
:1004B0000068704770B5B8B3044690F83D0028B99D
:1004C000002084F83C00204600F09EF9242084F8A7
:1004D0003D002068016821F001010160016841F4DC
:1004E00000410160016821F40041016000F056FB09
:1004F00048F28041C0F21E0140F60013D4F804E037
:1005000088424FF00001C0F23D0348F2A16C4FF069
:10051000000238BF01219842C0F2010C38BF01220D
:10052000E64538BF0A460AB1012070BD4DF6836129
:10053000C4F21B31A0FB01122168950C4B684FF4EB
:10054000967623F03F0343EA9243754344F6D3562D
:100550004B60C1F262060B6AA5FB0656B50923F093
:100560003F03E64538BF950C6A1C1A430A62CA6904
:1005700048F2A0664CF6FF73C0F20106B64522EAC7
:1005800003020BD801384FEA4E03B0FBF3F0013001
:100590006FF31F30042898BF04201EE0A3680138C1
:1005A00063B119230EFB03F3B0FBF3F001306FF3DB
:1005B0001F3078B100F5804008E000BF0EEB4E031D
:1005C000B0FBF3F001306FF31F3028B100F50040AD
:1005D00003E000BF012000E001201043C86108686B
:1005E000D4E9072320F0C00010431843086088684E
:1005F00048F2FF3204F10C0690434CCE18431043EE
:10060000A5698860C86820F0FF0030432843C860AF
:10061000086840F00100086000202021206484F870
:100620003D10206384F83E0070BD00002DE9F043CA
:1006300083B0994616460F460446FFF735FF94F8F7
:100640003D1020291CD1054620688169890713D5F2
:10065000FFF72AFF401B1928F6D90020202120632C
:1006600084F83D1084F83E00216C41F020012164A3
:1006700084F83C0004E000BF94F83C10012903D149
:10068000022003B0BDE8F083012284F83C20036817
:10069000DDE90B180A9ADB0703D1036843F0010375
:1006A0000360036823F400630360212084F83D00A5
:1006B000402084F83E000020206462626185608DE5
:1006C000394620850020CFF6FF70E0622046324692
:1006D0004B46CDF80080019500F022FF20B10120AB
:1006E00003B0BDE8F08300BF208D002850D0206803
:1006F00008F10106014651F8142F12062CD49EB1C0
:10070000B8F1000F5AD000BF086840055ED4FFF76B
:10071000CBFE401B404556D82068014651F8142FA7
:100720001206F1D518E000BF0A6852054ED40A68D7
:10073000120611D40A68520548D40A6812060BD46E
:100740000A68520542D40A68120605D40A6852059E
:100750003CD40A681206E7D5626A114611F8013BDB
:100760000361238D6162591E2185678D013F678575
:1007700047697F070AD50F0408D051780161911CA1
:100780006162991E2185628D013A62850904B1D1A9
:10079000204641462A4600F0FDFF38BB206801682C
:1007A00041F400710160202084F83D00002084F8AD
:1007B0003E0084F83C0003B0BDE8F08308684005C3
:1007C00004D4FFF771FE202004E000BF6FF48060C6
:1007D0000860042000212022216384F83D2084F851
:1007E0003E10226C1043206484F83C10206C0428D6
:1007F0007FF475AF2068016841F400710160012049
:1008000003B0BDE8F083000010B586B045F20041AA
:100810000068C4F2000100228842049202D006B0AF
:1008200010BD00BF41F21804C4F20204206840F079
:1008300008002060206800F0080001900198C020A6
:100840000290122003900320059001F5384002A980
:10085000FFF716FD606840F400106060606800F407
:1008600000100190019806B010BD000040F2000099
:1008700040F25811C2F20000C2F2000100780A688A
:10088000104408607047000080B542F20000C4F2D6
:100890000200016841F010010160032000F08EF8B1
:1008A0000F2000F005F800F027F8002080BD0000C0
:1008B00070B540F20006C2F2000640F254013278F0
:1008C000C2F200014FF47A730968B3FBF2F20446F6
:1008D000B1FBF2F1084600F04FFB0F2C4FF0010581
:1008E00008D838B94FF0FF3021460022002500F02B
:1008F00039F87460284670BD82B041F21800C4F225
:1009000002000168022241F001010160016801F06A
:10091000010101910199416841F0805141604068B5
:1009200000F08050009000980420C4F2010001689B
:1009300062F31A61016002B070470000002848BFEE
:100940007047C1B200F01F00012202FA00F04EF21F
:100950000012CEF2000242EAD10121F00301086048
:100960007047000010B54EF60C5CCEF2000CDCF8BF
:100970000030C3F3022E8EF00704042C28BF042499
:10098000BEF103034FF0FF3E0EFA04F438BF00231C
:10099000A14399400EFA03F39A43114300F00F026A
:1009A00000F160430901043A03F5644362440028FE
:1009B00048BF02F10C03197010BD00004EF60C5137
:1009C000CEF200010A684FF6FF031A4060F30A22D4
:1009D00042F0806040F0FD70086070472DE9F04300
:1009E00081B0002800F0858042F20008C4F20208BD
:1009F0000446D8F800000D4600F0070088420CD2EB
:100A0000D8F8000020F007002843C8F80000D8F804
:100A1000000000F00700A8426BD1206841F20409F1
:100A20008107C4F2020917D5410705D5D9F800108E
:100A300041F4E061C9F80010010705D5D9F80010AC
:100A400041F46051C9F80010D9F80010A26821F0F3
:100A5000F0011143C9F80010C00741D1D8F80000D7
:100A600000F00700A8420CD9D8F8000020F00700D9
:100A70002843C8F80000D8F8000000F00700A8429A
:100A800037D12068410707D5D9F80010E26821F472
:100A9000E0611143C9F80010000708D5D9F800003B
:100AA000216920F4605040EAC100C9F80000D9F87B
:100AB000002002F00C00082841F20020C0F27A0069
:100AC00050D142F6DC63C2F38341C0F60003595CA7
:100AD000D2033BD440F60010C0F23D00484341E051
:100AE000606802280AD001282AD159F8041C890319
:100AF00008D4012001B0BDE8F08300BF59F8041C00
:100B00008901F6D5D9F8001021F003010843C9F88E
:100B10000000FFF7C9FC064641F28837D9F800000B
:100B2000616800F00C00B0EB810F97D0FFF7BCFCC0
:100B3000801BB842F2D9032001B0BDE8F08300BFAA
:100B400059F8041C8907D4D5DCE700BFD9F8002088
:100B500042F25263C2F34042C0F600039A5C48433B
:100B6000B0FBF2F0D9F8001042F2BC62C1F30311FD
:100B7000C0F60002515C40F2540220FA01F140F24A
:100B80000400C2F200000068C2F200021160FFF728
:100B90008FFE002001B0BDE8F083000040F2540059
:100BA00041F20401C2F20000C4F2020100680968C7
:100BB00042F2CC62C1F30221C0F60002515CC8408F
:100BC000704700002DE9F04182B0002868D004464B
:100BD000007841F20006C007C4F2020625D0706812
:100BE00000F00C0004281BD0706800F00C000828EE
:100BF00002D17068C00313D46068002800F06881D7
:100C0000B0F5A02F00F07C81B0F5803F00F07C8132
:100C1000306820F480303060306820F4802076E145
:100C20003068800301D56068D0B32078800718D57C
:100C3000706810F00C0F07D0706800F00C000828E6
:100C40006ED17068C0036BD43068800702D520690C
:100C5000012825D13068616920F0F80040EAC10020
:100C60003060207800071FD42078400732D4E5692F
:100C700095B1706800F00C00082840F08F80012DBD
:100C80000ED07068216A00F480328A4208D1616A0D
:100C900000F47010884203D1002002B0BDE8F0815A
:100CA000012002B0BDE8F081A069002862D00020D8
:100CB000C4F242200121C0F88014FFF7F5FB05467D
:100CC000706A800700F18C80FFF7EEFB401B022862
:100CD000F6D92AE1F06910F0805808D1F06940F0A7
:100CE0008050F061F06900F080500090009847F269
:100CF0000007C4F200073868C00529D4386840F4FA
:100D000080703860FFF7D0FB054600BF3868C0052B
:100D10001ED4FFF7C9FB401B6428F7D905E100BFCB
:100D20002069002840F20000C4F2422000F08280D6
:100D300001210160FFF7B8FB054600BF306880075E
:100D40003FF588AFFFF7B0FB401B0228F6D9ECE077
:100D5000E068002800F08080052800F097800128D6
:100D600000F09880306A20F001003062306A20F094
:100D7000040092E00020C4F242200021C0F8801458
:100D8000FFF792FB054600BF706A80077FF56CAFE6
:100D9000FFF78AFB401B0228F6D9C6E00027C4F201
:100DA000422700203866FFF77FFB022D05460BD156
:100DB0003068800140F1BE80FFF776FB401B0228BF
:100DC0004FF00300F4D968E7306880017FF564AF25
:100DD000FFF76AFB401B02284FF00300F4D95CE7E1
:100DE00040F25400C2F20000006844F6D351C1F250
:100DF0006201A0FB0101480A019000BF00BF0198F9
:100E0000411E002801913FF42FAF00BF0198411E01
:100E1000002801913FF428AF00BF0198411E00282F
:100E200001913FF421AF00BF0198411E00280191BC
:100E3000E4D119E700210160FFF736FB054600BF4A
:100E4000306880077FF50DAFFFF72EFB401B0228AF
:100E50004FF00300F4D920E7306A20F0010030623F
:100E6000306A20F004003062FFF71EFB054641F2B5
:100E7000883700BF306A800720D5FFF715FB401B7D
:100E8000B8424FF00300F5D907E700BF306A40F0E1
:100E900004003062306A40F001003062FFF704FB6A
:100EA000054641F2883700BF306A800706D4FFF755
:100EB000FBFA401BB842F7D937E000BFB8F1000F8A
:100EC0007FF4D5AEF06920F08050F061CFE600BF2E
:100ED000306820F480303060306820F4802030604A
:100EE000FFF7E2FA054600BF306880037FF59DAE4C
:100EF000FFF7DAFA401B64284FF00300F4D9CCE680
:100F0000306840F480203060306840F480303060D9
:100F1000FFF7CAFA054600BF306880033FF585AE8B
:100F2000FFF7C2FA401B6428F6D9032002B0BDE8DF
:100F3000F08100BF206AB0F5803F05D17168A268DA
:100F400021F40031114371607168626A21F47411F7
:100F500011430843706001203866FFF7A5FA044684
:100F6000306880013FF598AEFFF79EFA001B02281B
:100F70004FF00300F4D990E6411E0020B0EB116F52
:100F80001CBF012070474EF21002CEF200025160E9
:100F90004EF62351CEF20001F0230B700721906032
:100FA00011607047704700007047000010B590F85E
:100FB0003C20012A4FF0020233D080F83D20026825
:100FC000D2F804E0D2F808C00C682EF07003234376
:100FD00040F2FF74C4F20004A24253600ADCB2F192
:100FE000804F13D040F20043C4F200039A420DD068
:100FF00011E000BF42F60043C4F201039A4205D05B
:1010000040F60003C4F200039A4204D149682CF070
:101010008003194391600121002280F83D1080F87F
:101020003C20104610BD0000002804BF012070477E
:1010300010B5044690F83D0028B9002084F83C0023
:10104000204600F067F8022084F83D00206840F256
:10105000FF730268C4F2000342F6004C9842C4F2E7
:10106000010C15DCB0F1804F1AD040F20041C4F2FF
:101070000001884214D0984218DCB0F1804F1DD096
:1010800040F20041C4F20001884217D01AE000BFCC
:10109000604505D040F60001C4F200018842EAD163
:1010A000A16822F070020A439842E6DD604505D04F
:1010B00040F60001C4F20001884203D1216922F404
:1010C00040720A43A36922F08001D4F804E0E26888
:1010D000194360450160C262C0F828E002D161692D
:1010E000CCF8301001214161002084F8461084F8CA
:1010F0003E1084F83F1084F8401084F8411084F8C2
:10110000421084F8431084F8441084F8451084F8A1
:101110003D1010BD80B582B0006840F60001C4F2F9
:10112000000188421CBF02B080BD41F21C00C4F225
:1011300002000168002241F0040101600068002102
:1011400000F00400019001981E20FFF70BFC1E2008
:1011500002B0BDE88040FFF7F1BB000090F83D1001
:1011600001291CBF01207047022180F83D10006852
:1011700040F2FF72C168C4F20002904241F00101E6
:10118000C16009DCB0F1804F12D040F20041C4F2DE
:10119000000188420CD012E042F60041C4F2010185
:1011A000884205D040F60001C4F20001884206D111
:1011B000816801F00701062904BF0020704701681B
:1011C00041F00101016000207047000080B590F8F7
:1011D0003C20012A4FF0020200F0BF8080F83D2041
:1011E000D0F800C04FF67772DCF8083023EA02022C
:1011F000CCF808200B683F2B1CDD5F2B20DD602B1B
:1012000050D0B3F5005F6DD0702B40F0A080D1E9D5
:1012100001E3C968DCF8082043EA0E0322F47F42A8
:1012200043EA01211143CCF80810DCF8081041F022
:1012300077018AE01F2B29DC63B3102B2AD086E0CC
:10124000402B63D0502B40F08280D1F804E0C96875
:10125000DCF82030DCF8202022F00102CCF820203D
:10126000DCF8182022F0F00242EA011123F00A0211
:1012700042EA0E02CCF81810CCF82020DCF8081056
:1012800041F0570121F020015FE000BF202B01D089
:10129000302B5CD1DCF8081021F07001194341F0CB
:1012A000070152E0D1F804E0C968DCF8203023F0EF
:1012B0001003CCF82030DCF81830DCF8202023F4C0
:1012C000704322F0A00243EA013142EA0E12CCF848
:1012D0001810CCF82020DCF8081041F0670121F04C
:1012E000100132E0D1E901E3C968DCF8082043EAE3
:1012F0000E0322F47F4243EA01211143CCF8081087
:10130000DCF8081041F480411FE000BFD1F804E090
:10131000C968DCF82030DCF8202022F00102CCF88B
:101320002020DCF8182022F0F00242EA011123F01C
:101330000A0242EA0E02CCF81810CCF82020DCF8A1
:10134000081041F0470121F03001CCF808100121CC
:10135000002280F83D1080F83C20104680BD00003F
:101360007047000010B5016804460869800744BF53
:10137000C8685FEA807039D40869400744BFC8680C
:101380005FEA40703ED40869000744BFC8685FEA5E
:10139000007045D40869C00644BFC8685FEAC060F1
:1013A0004AD40869C0071CBFC8685FEAC07051D141
:1013B0000869000644BFC8685FEA006052D4086943
:1013C000400644BFC8685FEA406053D4086980069D
:1013D00046BFC8685FEA806010BD6FF020022046FB
:1013E0000A61BDE81040FFF7DFBD00BF6FF00200EB
:1013F0000861012020778869800743D02046FFF7E5
:10140000AFFF45E06FF00400086102202077886993
:1014100010F4407F40D02046FFF7A2FF42E000BF1B
:101420006FF00800086104202077C86980073DD06C
:101430002046FFF795FF3FE06FF01000086108209D
:101440002077C86910F4407F3AD02046FFF788FF24
:101450003CE000BF6FF001000861204600F03EF85C
:101460002168A5E76FF0800008612046FFF79AFD2C
:101470002168A4E76FF040000861204600F04CF8B6
:101480002168A3E7204600F025F8204600F024F864
:101490002168002020776FE7204600F01BF82046E7
:1014A00000F01AF82168002020776CE7204600F051
:1014B00011F8204600F010F821680020207769E735
:1014C000204600F007F8204600F006F821680020CA
:1014D000207766E7704700007047000040F2101167
:1014E000C2F20001884201D0704700BF40F2B8004C
:1014F000C2F2000001780131CAB2642A017018BF3B
:10150000704740F20801C2F200018A7801328A7005
:10151000002101707047000070470000FEE70000E6
:101520002DE9F04381B00446006890460268099DA9
:1015300042F4807202604269089E9946D2070F46C3
:101540001DD1711C11D0002E00F0D280FEF7ACFF2F
:10155000401BB04200F2CE8020684169C907F5D037
:101560000DE000BF4169C90709D14169C90706D12A
:101570004169C90704BF41695FEAC171F2D007F050
:10158000FE0101614169890738D44169721C01F487
:10159000806111D049BB002E00F0E880FEF784FF87
:1015A000401BB04200F2E48020684169890725D4DD
:1015B00041694905F2D518E0B9B9416989071DD4D7
:1015C0004169490511D44169890717D44169490521
:1015D0000BD44169890711D44169490505D4416992
:1015E00089070BD441694905E7D5016841F40071C9
:1015F00001606FF4806141610420BAE00021009134
:10160000014651F8142F00924A680092009A0A6825
:1016100012061ED4002E00F08580721C4DD10A687F
:10162000520500F187800A68120612D40A68520532
:1016300000F180800A6812060BD40A68520579D43A
:101640000A68120605D40A68520573D40A6812069D
:10165000E5D5B9F1010F43D04FEA182101610146E8
:1016600051F8142F12063BD4002E5BD0721C29D1E6
:101670000A6852055ED40A68120631D40A68520517
:1016800058D40A6812062BD40A68520552D40A6844
:10169000120625D40A6852054CD40A681206E7D50A
:1016A0001EE000BFFEF700FF401BB0423FD820689D
:1016B000014651F8142F1206CBD408684005F1D525
:1016C00038E000BF0868400534D4FEF7EDFE401B4B
:1016D000B0422CD82068014651F8142F1206F1D5DB
:1016E0005FFA88F10161002001B0BDE8F08300BF1E
:1016F000FEF7DAFE00202021206384F83D1084F8F4
:101700003E00216C41F020012164216884F83C00F6
:101710000868C00544BF4FF400702064032001B086
:10172000BDE8F0830868400504D4FEF7BDFE202024
:1017300004E000BF6FF480600860042000212022D4
:10174000216384F83D2084F83E10226C104320640D
:1017500084F83C10206C042817D12068016841F4FB
:1017600000710160012001B0BDE8F083FEF79CFE2E
:10177000202000212022216384F83D2084F83E109F
:10178000226C1043206484F83C10012001B0BDE8B5
:10179000F083000070B50368044653F8140F400747
:1017A00037D40E46F1B1701C24D100BF1868400533
:1017B00032D4186840072CD4186840052CD4186817
:1017C000400726D41868400526D41868400720D45E
:1017D0001868400520D4186840074FF0000048BF43
:1017E00070BDE3E71868400516D4FEF75DFE2020C3
:1017F00016E000BF154600BF186840050CD4FEF780
:1018000053FE401BB042F2D8236853F8140F400730
:10181000F2D5002070BD00BF6FF480601860042016
:1018200000212022216384F83D2084F83E10226CA0
:1018300010432064012084F83C1070BD70B584B062
:1018400041F21800C4F20200016840F6004441F081
:10185000200101600168C4F2010401F0200100913F
:1018600000990168002241F0040101600168082527
:1018700001F00401009100990168002641F008017F
:1018800001600068082100F00800009000982046E0
:10189000FEF704FE0120CDE901060220039069460F
:1018A00020460095FEF7ECFC04B070BD80B540F218
:1018B000BC0045F20041C2F20000C4F2000148F24F
:1018C000A06200234FF4804CC0F2010280E80E00B9
:1018D000C0E9033CC0E90533C0E90733FEF7EAFD80
:1018E000002808BF80BDBDE88040FEF7AFBC000007
:1018F00080B586B040F210100021C2F2000040F620
:1019000000024FF0630C0591CDE90311CDE9001100
:10191000C4F2000241F61F43C0E9021C01618021AC
:10192000C0E900238161FFF77FFB002818BFFEF7A5
:101930008DFC4FF48050029040F21010C2F2000073
:1019400002A9FFF743FC002818BFFEF77FFC40F216
:101950001010C2F200006946FFF728FB002818BFEC
:10196000FEF774FC06B080BDFEE70000FEE7000055
:101970002DE9F04F85B040F2BC0400254FF480768D
:101980000127C2F200040DF1120B0DF113084FF004
:10199000000900BF09F1B0008DF8100004A8CDE9DE
:1019A000000720467821002201230296FEF73EFE22
:1019B0000DF11100CDE90007204678210022012316
:1019C0008DF811500296FEF731FE10208DF81200AE
:1019D0002046782100220123CDE900B70296FEF7C8
:1019E00025FE4FF0000A00BF204678214022012347
:1019F0008DF81350CDE900870296FEF717FEBAF175
:101A0000830F0AF1010AEFD3B9F1070F09F10109B8
:101A1000C0D305B0BDE8F08F2DE9F04F89B0DD08E7
:101A20005E074FF0010718BF07EBD305002D0590A7
:101A300000F09D80059FA1F15003B81C102141EAE0
:101A40001011002A00F00F0004910390CDE9063533
:101A500056D040F2BC05049ED41900274FF480787C
:101A60004FF00109C2F200050DF1230A4FF0000BFF
:101A700003EB0B008DF8200008A8CDE900092846EB
:101A8000782100220123CDF80880FEF7CFFD0DF16B
:101A90002100CDE9000928467821002201238DF894
:101AA0002160CDF80880FEF7C1FD039878218DF8FC
:101AB00022000DF12200CDE9000928460022012371
:101AC000CDF80880FEF7B2FD059E00BF28467821BC
:101AD000402201238DF82370CDE900A9CDF80880BC
:101AE000FEF7A4FD0136F0B28442EFD80BF1010BF2
:101AF00007995FFA8BF0069B049E8842B8D336E0C4
:101B000040F2BC04DDE9038B00254FF48077012609
:101B1000C2F200040DF121090DF1220A58198DF8C5
:101B2000200008A8CDE900062046782100220123E4
:101B30000297FEF77BFD20467821002201238DF8D5
:101B400021B0CDE900960297FEF770FD204678217E
:101B5000002201238DF82280CDE900A60297FEF72E
:101B600065FD01350799069BE8B28842D6D309B0D6
:101B7000BDE8F08F80B5C820FEF76EFBBDE8804061
:101B800000F0F2BB2DE9F04F89B00D46A2F1200123
:101B90007E2800F102024FF0100788BF023588BF8F
:101BA0000222A5F1500047EA121402F00F07102B91
:101BB000CEB240F03B8140F2BC088DF818004FF0E7
:101BC000010B06A8C2F200084FF48079CDE9000BA2
:101BD0004046782100220123CDF80890FEF726FD2B
:101BE0000DF11900CDE9000B4046782100220123B8
:101BF0008DF81940CDF80890FEF718FD0DF11A0088
:101C0000CDE9000B40467821002201238DF81A709F
:101C1000CDF808904FF48079FEF708FD42F6FC01FC
:101C20003001C0F60001085C01EB06168DF81B00C0
:101C300005970DF11B074046782140220123CDE98D
:101C4000007BCDF80890FEF7F1FC7078317996F8BA
:101C500002A0049496F8039003918DF81B0040466F
:101C60007821402201234FF48074CDE9007B029457
:101C7000FEF7DCFC40467821402201234FF48074BB
:101C80008DF81BA0CDE9007B0294FEF7CFFC404607
:101C90007821402201238DF81B90CDE9007B02942E
:101CA000FEF7C4FC039878218DF81B0040464022C3
:101CB0000123CDE9007B0294FEF7B8FC707978210E
:101CC0008DF81B00404640220123CDE9007B0294A1
:101CD000FEF7ACFCB07978218DF81B00404640221D
:101CE0000123CDE9007B0294FEF7A0FCF079782176
:101CF0008DF81B00404640220123CDE9007B029471
:101D0000FEF794FCA5F14F008DF81C0007A8CDE963
:101D1000000B40467821002201230294FEF786FC46
:101D2000049878218DF81D000DF11D00CDE9000B00
:101D30004046002201230294FEF778FC05987821A2
:101D40008DF81E000DF11E00CDE9000B404600226B
:101D500001230294FEF76AFC307A0DF11F058DF81D
:101D60001F004046782140220123CDE9005B029408
:101D7000FEF75CFC707A78218DF81F004046402207
:101D80000123CDE9005B0294FEF750FCB07A782184
:101D90008DF81F00404640220123CDE9005B0294EC
:101DA000FEF744FCF07A78218DF81F00404640226F
:101DB0000123CDE9005B0294FEF738FC307B7821EB
:101DC0008DF81F00404640220123CDE9005B0294BC
:101DD000FEF72CFC707B78218DF81F0040464022D6
:101DE0000123CDE9005B02944FF48074FEF71EFCE2
:101DF000B07B78218DF81F00404640220123CDE9B9
:101E0000005B02944FF48074FEF710FCF07BCDE988
:101E1000005B8DF81F004046782140220123029488
:101E2000FEF704FC09B0BDE8F08F00BF40F2BC0B28
:101E30008DF820004FF0010A08A8C2F2000B4FF401
:101E40008078CDE9000A5846782100220123CDF898
:101E50000880FEF7EBFB0DF12100CDE9000A5846A2
:101E60007821002201238DF82140CDF80880FEF76B
:101E7000DDFB0DF12200CDE9000A58467821002251
:101E800001238DF82270CDF80880FEF7CFFB42F2D7
:101E9000D46106EB4600C0F6000111F8102001EBFA
:101EA00040058DF823200DF1230658467821402265
:101EB0000123CDE9006ACDF80880FEF7B7FB68780A
:101EC000AF78EC7895F804908DF823005846782187
:101ED00040220123CDE9006ACDF80880FEF7A6FB79
:101EE00058467821402201238DF82370CDE9006AFD
:101EF000CDF80880FEF79AFB58467821402201234E
:101F00008DF82340CDE9006ACDF80880FEF78EFBFE
:101F100058467821402201238DF82390CDE9006AAC
:101F2000CDF80880FEF782FB687978218DF82300D0
:101F3000584640220123CDE9006ACDF80880FEF71B
:101F400075FB09B0BDE8F08FF0B583B040F208072B
:101F5000C2F20007FA78387902F003053C1880F0E5
:101F600002002843E479B0FA80F0400920447B79EC
:101F7000C0B2461CB3FBF6F65D1E4F23734395FBC0
:101F8000F0F402EB9323721E42F6AB26564304FB99
:101F90001050751405EBD676B97906EB4606A2EB20
:101FA000860225264E43A1EB1625EDB26D0805EB02
:101FB0001626B608A6EBC6063144B971D9B2CD26AD
:101FC00071433024CD0A04EBD12101328DF8041085
:101FD00005EB8501FB70A3EB4101D3B2734341F0E4
:101FE0003001DD0A04EBD32301308DF805102F21D9
:101FF0008DF8073005EB85033A718DF80610A2EBDA
:1020000043028DF80910C1B242F0300271438DF8DD
:102010000820CA0A04EBD1218DF80A1002EB8201D4
:102020007871A0EB410040F030008DF80B0001AA60
:1020300000200021082300F0C1F8B879002107EB47
:10204000800042696820082300F0B8F803B0F0BDB2
:102050002DE9F04F8BB0DD085E074FF0010718BF88
:1020600007EBD305002D069000F0A580069FA1F197
:102070005003B81C102141EA1011002A00F00F0093
:1020800005910490CDE907355ED0149C40F2BC0563
:10209000DDF814A0174400224FF480784FF00109B6
:1020A000C2F200050DF12B0B002600BF98188DF829
:1020B00028000AA80992CDE90009284678210022C3
:1020C0000123CDF80880FEF7B1FA0DF12900CDE922
:1020D000000928467821002201238DF829A0CDF897
:1020E0000880FEF7A3FA049878218DF82A000DF1F4
:1020F0002A00CDE90009284600220123CDF80880F6
:10210000FEF794FADDF818A0F0B2205C78218DF883
:102110002B002846402201230136CDE900B9CDF835
:102120000880FEF783FA0AF1010A5FFA8AF0874213
:10213000EAD8099A08990132D0B2079BDDF814A0B9
:102140008842B3D337E000BF40F2BC04DDE9048B22
:1021500000254FF480760127C2F200040DF1290911
:102160000DF12A0A58198DF828000AA8CDE90007B0
:1021700020467821002201230296FEF757FA2046D6
:102180007821002201238DF829B0CDE9009702962D
:10219000FEF74CFA20467821002201238DF82A8090
:1021A000CDE900A70296FEF741FA01350899079B91
:1021B000E8B28842D6D30BB0BDE8F08F2DE9F041EC
:1021C00015461278002A08BFBDE8F08198460E46F1
:1021D00007460024F8B2F1B2D2B24346FFF7D2FC70
:1021E0000837F8B201347828E0B288BF02362A5C9A
:1021F00088BF0027002AEDD1BDE8F081F0B581B09D
:1022000040F20804C2F20004A2786178D7B28926AD
:10221000774301EB5731CBB273435E0B3601A6EB2C
:1022200053337D0BA1EB8301617029012078A1EB71
:102230005731A2EB810194F805C0A170C1B2AB2265
:10224000A77951430A0B0CEB113307EB1131A17144
:1022500002EB4201A0EBC100C1B2CD2569430222CD
:1022600082EAD12134A252F82170637120700420D7
:102270000121182230230097FFF7EAFE207842F26E
:102280007C6700FB05F1C90A01EB8101A0EB41006D
:1022900080F00800C0B2C0F6000757F820601C208C
:1022A0000121182230230096FFF7D2FEA078C00744
:1022B0000CD143F2A846C0F60006342001211822B2
:1022C00030230096FFF7C4FE06E000BF3420012152
:1022D00018223023FFF7A0FB6078CD267043C00A98
:1022E000092807D842F25461C0F6000151F8205085
:1022F00004E000BF43F21845C0F600054C20012160
:10230000182230230095FFF7A3FE6078182200FB07
:1023100006F1C90A01EB8101A0EB410080F0080041
:10232000C0B257F820706420012130230097FFF7D6
:102330008FFE01B0F0BD00BF28300008183400083F
:10234000082F0008982F0008704700007047000011
:10235000FEF78CBA7047000040F21010C2F2000085
:10236000FFF700B8FEE70000F0B583B040F2BC0410
:1023700040F23807C2F200044FF480750126C2F221
:1023800000072046782100220123CDE9007602953E
:10239000FEF74CF9781CCDE9000620467821002292
:1023A00001230295FEF742F9B81CCDE9000620464C
:1023B0007821002201230295FEF738F9F81CCDE9B7
:1023C000000620467821002201230295FEF72EF90F
:1023D000381DCDE900062046782100220123029510
:1023E000FEF724F9781DCDE9000620467821002269
:1023F00001230295FEF71AF9B81DCDE90006204623
:102400007821002201230295FEF710F9F81DCDE98D
:10241000000620467821002201230295FEF706F9E6
:1024200007F10800CDE900062046782100220123AB
:102430000295FEF7FBF807F10900CDE900062046FA
:102440007821002201230295FEF7F0F807F10A0037
:10245000CDE9000620467821002201230295FEF7EF
:10246000E5F807F10B00CDE90006204678210022AF
:1024700001230295FEF7DAF807F10C00CDE900061A
:1024800020467821002201230295FEF7CFF807F1BC
:102490000D00CDE900062046782100220123029597
:1024A000FEF7C4F807F10E00CDE9000620467821BA
:1024B000002201230295FEF7B9F807F10F00CDE9DC
:1024C000000620467821002201230295FEF7AEF88F
:1024D00007F11000CDE900062046782100220123F3
:1024E0000295FEF7A3F807F11100CDE9000620469A
:1024F0007821002201230295FEF798F807F11200D7
:10250000CDE9000620467821002201230295FEF73E
:102510008DF807F11300CDE900062046782100224E
:1025200001230295FEF782F807F11400CDE90006B9
:1025300020467821002201230295FEF777F807F163
:102540001500CDE9000620467821002201230295DE
:10255000FEF76CF807F11600CDE900062046782159
:10256000002201230295FEF761F807F11700CDE97B
:10257000000620467821002201230295FEF756F836
:1025800007F11800CDE9000620467821002201233A
:102590000295FEF74BF807F11900CDE90006204639
:1025A0007821002201230295FEF740F807F11A0076
:1025B000CDE9000620467821002201230295FEF78E
:1025C00035F803B0F0BD000090B0FEF75DF90024CF
:1025D0000120CDE90B44CDE9094406900A904FF45F
:1025E000E0104FF4803102250F9006A8CDE90714C2
:1025F000CDE90D51FEF7E6FA20B1EFF3108072B687
:10260000FEE700BF0F20CDE901054FF48060CDE962
:10261000040401A802210394FEF7E0F920B1EFF3CE
:10262000108072B6FEE700BFFFF708F9FFF73EF92A
:10263000FFF75EF9FFF79EFAFFF79AF940F21010E4
:10264000C2F20000FEF78AFDFFF7D8FDFFF77CFC21
:10265000FAE70102082F0008982F00082830000828
:10266000B830000848310008D83100086832000846
:10267000F83200088833000818340008883300084E
:1026800018340008183400081834000818340008FA
:10269000183400081834000818340008082F0008FF
:1026A000982F000828300008B8300008483100088A
:1026B000D831000868320008F83200080000000035
:1026C00000000000010203040607080900000000E2
:1026D000010203040000000000000000002F0000C1
:1026E00000000700070000147F147F1400242A7FD5
:1026F0002A12006264081323003649552250000054
:102700000503000000001C224100000041221C00C3
:102710000014083E08140008083E0808000000A045
:102720006000000808080808000060600000002041
:1027300010080402003E5149453E0000427F40001F
:10274000004261514946002141454B3100181412A5
:102750007F10002745454539003C4A494930000172
:102760007109050300364949493600064949291EC1
:102770000000363600000000563600000008142223
:102780004100001414141414000041221408000223
:102790000151090600324959513E007C1211127C48
:1027A000007F49494936003E41414122007F414175
:1027B000221C007F49494941007F09090901003E67
:1027C0004149497A007F0808087F0000417F4100A5
:1027D000002040413F01007F08142241007F40401B
:1027E0004040007F020C027F007F0408107F003E03
:1027F0004141413E007F09090906003E4151215EE9
:10280000007F091929460046494949310001017FE5
:102810000101003F4040403F001F2040201F003F7B
:102820004038403F0063140814630007087008072D
:1028300000615149454300007F41410000552A5540
:102840002A55000041417F000004020102040040BB
:1028500040404040000001020400002054545478DD
:10286000007F4844443800384444442000384444FD
:10287000487F00385454541800087E09010200189B
:10288000A4A4A47C007F080404780000447D4000D8
:10289000004080847D00007F102844000000417FBC
:1028A0004000007C04180478007C08040478003898
:1028B0004444443800FC242424180018242418FC20
:1028C000007C0804040800485454542000043F4489
:1028D0004020003C4040207C001C2040201C003C4C
:1028E0004030403C004428102844001CA0A0A07C9C
:1028F000004464544C4414141414141400000000D4
:10290000000000000000000000000000000000F8CF
:1029100000000000000000333000000000100C0632
:10292000100C0600000000000000000040C07840CD
:10293000C0784000043F04043F040400007088FC99
:1029400008300000001820FF211E0000F008F000F1
:10295000E018000000211C031E211E0000F0088862
:10296000700000001E2123241927211010160E00CC
:10297000000000000000000000000000000000E077
:10298000180402000000000718204000000204188C
:10299000E00000000040201807000000404080F0E8
:1029A000804040000202010F01020200000000F01E
:1029B000000000000101011F0101010000000000F2
:1029C0000000000080B07000000000000000000067
:1029D00000000000000101010101010100000000F0
:1029E0000000000000303000000000000000000087
:1029F00080601804006018060100000000E0100864
:102A00000810E000000F102020100F00001010F838
:102A1000000000000020203F202000000070080877
:102A200008887000003028242221300000300888F7
:102A3000884830000018202020110E000000C0201F
:102A400010F8000000070424243F240000F8088840
:102A5000880808000019212020110E0000E01088CD
:102A600088180000000F112020110E0000380808FF
:102A7000C83808000000003F00000000007088080F
:102A800008887000001C222121221C0000E0100890
:102A90000810E0000000312222110F00000000C0E9
:102AA000C000000000000030300000000000008086
:102AB0000000000000008060000000000000804076
:102AC000201008000001020408102000404040408F
:102AD00040404000040404040404040000081020E2
:102AE0004080000000201008040201000070480827
:102AF0000808F0000000003036010000C030C8288F
:102B0000E810E0000718272423140B000000C03849
:102B1000E0000000203C23020227382008F88888C3
:102B200088700000203F202020110E00C0300808CF
:102B300008083800071820202010080008F80808A6
:102B40000810E000203F202020100F0008F888889F
:102B5000E8081000203F20202320180008F888886B
:102B6000E8081000203F200003000000C0300808E3
:102B70000838000007182020221E020008F808006C
:102B80000008F808203F210101213F20000808F833
:102B9000080800000020203F202000000000080856
:102BA000F8080800C08080807F00000008F888C016
:102BB00028180800203F20012638200008F80800C7
:102BC00000000000203F20202020300008F8F800FE
:102BD000F8F80800203F003F003F200008F830C010
:102BE0000008F808203F200007183F00E010080800
:102BF0000810E0000F10202020100F0008F808082F
:102C00000808F000203F210101010000E010080841
:102C10000810E0000F18242438504F0008F8888866
:102C200088887000203F2000030C30200070880846
:102C3000080838000038202121221C00180808F854
:102C4000080818000000203F2000000008F80800D5
:102C50000008F808001F202020201F0008788800A6
:102C600000C83808000007380E010000F80800F816
:102C70000008F800033C0700073C030008186880C0
:102C80008068180820302C03032C30200838C80036
:102C9000C83808000000203F200000001008080885
:102CA000C83808002038262120201800000000FE27
:102CB000020202000000007F40404000000C30C0D3
:102CC00000000000000000010638C00000020202FF
:102CD000FE000000004040407F00000000000402B1
:102CE00002020400000000000000000000000000DC
:102CF00000000000808080808080808000020204CC
:102D000000000000000000000000000000008080C3
:102D1000808000000019242222223F2008F8008031
:102D200080000000003F112020110E0000000080F4
:102D300080800000000E1120202011000000008083
:102D40008088F800000E112020103F2000008080B5
:102D500080800000001F222222221300008080F0C9
:102D6000888888180020203F2020000000008080F4
:102D700080808000006B94949493600008F8008039
:102D800080800000203F210000203F200080989894
:102D9000000000000020203F2020000000000080F4
:102DA0009898000000C08080807F000008F8000034
:102DB00080808000203F24022D302000000808F889
:102DC000000000000020203F202000008080808044
:102DD00080808000203F20003F20003F80800080D6
:102DE00080800000203F210000203F2000008080E4
:102DF00080800000001F202020201F008080008095
:102E00008000000080FFA12020110E000000008043
:102E100080808000000E112020A0FF808080800034
:102E20008080800020203F21200001000000808061
:102E3000808080000033242424241900008080E056
:102E4000808000000000001F202000008080000023
:102E500000808000001F202020103F208080800004
:102E60000080808000010E30080601008080008014
:102E7000008080800F300C030C300F000080800039
:102E8000808080000020312E0E3120008080800064
:102E90000080808080818E70180601000080808014
:102EA000808080000021302C2221300000000000B2
:102EB000807C020200000000003F40400002027CD3
:102EC000800000000040403F0000000000000000C3
:102ED000FF00000000000000FF00000002030405E6
:102EE000060708090A0B0C0D0E0F10105765640039
:102EF00054756500467269004D6F6E0053756E0023
:102F00005361740054687500000000000000000068
:102F100000000000000000000000000000000000B1
:102F200000000080E0F0FC3E0E07030101010303F6
:102F30000E3EFCF8E08000000000F8FFFFFF0300F9
:102F40000000000000000000000003FFFFFFFC0085
:102F500000003FFFFFFF80000000000000000000B5
:102F6000000080FFFFFF3F00000000030F1F7F787D
:102F7000E0C0800000008080E0F87F3F0F03000089
:102F8000000000000000000000010101010101013A
:102F90000000000000000000000000000000000031
:102FA0000000000000000000000000000000000021
:102FB0000000000000000808080808FCFEFFFF00F1
:102FC0000000000000000000000000000000000001
:102FD000000000FFFFFFFF000000000000000000F5
:102FE0000000000000000000000000FFFFFFFF00E5
:102FF00000000000000000000000000000000000D1
:10300000000080FFFFFFFF800000000000000000C4
:1030100000000000000001010101010101010101A6
:10302000010101010000000000000000000000009C
:103030000000000000000000000000000000000090
:10304000000000E0F8FCFC0602030101010103039B
:10305000071EFEFCF8E0000000000003070707075A
:103060000000000000000080E0F8FF7F1F07000064
:103070000000000000000080C0E0F0783C1E0F0758
:1030800003010000000000000000E0F0F8FEDFC7D0
:10309000C3C1C0C0C0C0C0C0C0E0E0F8FE0E0000A8
:1030A0000000010101010101010101010101010112
:1030B000010101010100000000000000000000000B
:1030C0000000000000000000000000000000000000
:1030D00000000000F0F8FCC6020301010101030733
:1030E0001EFEFCF8E00000000000000000010101ED
:1030F0000080808080C0C060783F1F0F0300000008
:1031000000000000000000000000000000010103BA
:10311000070EFEFCF8E000000000001E3F7FFFCE1F
:103120008000000000008080C0F07F3F1F0700008B
:103130000000000000000000010101010101010187
:10314000000000000000000000000000000000007F
:10315000000000000000000000000000000000006F
:103160000000000000000000000000C0F038FEFF7A
:10317000FFFF000000000000000000000000C0E0B1
:10318000781E0F030000FFFFFFFF0000000000009B
:10319000000060787C5F4741404040404040FFFF76
:1031A000FFFF4040404040000000000000000000E1
:1031B000000000000080FFFFFFFF80000000000013
:1031C00000000000000000000001010101010101F8
:1031D00001010101010101000000000000000000E8
:1031E00000000000000000000000000000000000DF
:1031F0000000000000FFFF07070707070707070792
:10320000070707070700000000000000FFFFFFC0DE
:10321000E070303030303070F0E0C0C000000000AE
:103220000000000083838301000000000000000014
:103230000007FFFFFFFC00000000000F3F7FFFC7FB
:103240008080000000008080E0F87F3F1F030000C6
:103250000000000000000000010101010101010166
:10326000000000000000000000000000000000005E
:10327000000000000000000000000000000000004E
:1032800000000000C0F0F83C0E060203010101013D
:10329000013F3E3C380000000000F0FFFFFF83C00C
:1032A000E06070303030307070E0E0C080000000CE
:1032B0000000FFFFFFFF070100000000000000000A
:1032C000000003FFFFFFFC00000000071F3F7EF02F
:1032D000E0C080000000008080C0F87F3F1F030036
:1032E00000000000000000000001010101010101D7
:1032F00001000000000000000000000000000000CD
:1033000000000000000000000000000000000000BD
:10331000000000E0FF7F1F0F0707070707070707E9
:10332000C7E77F1F0F03000000000000000000003F
:1033300000000000C0F0FC3F07010000000000009A
:10334000000000000000000000E0F8FFFF0F000098
:10335000000000000000000000000000000000006D
:10336000FEFFFFFFFF000000000000000000000063
:10337000000000000000000000010101000000004A
:10338000000000000000000000000000000000003D
:10339000000000000000000000000000000000002D
:1033A000000000E0F8FCFE1E06030101010101031C
:1033B000071EFEFCF8E00000000000070F3F3F7E04
:1033C000F8F0F0E0C0C0C0E070783F1F0F030000CD
:1033D0000000C0F0FCFE3F07030101010303070FDB
:1033E0001F7EFEFCF0C000000000071F3F7FF0C002
:1033F0008080000000000080C0F07F3F1F070000B9
:1034000000000000000000000101010101010101B4
:1034100000000000000000000000000000000000AC
:10342000000000000000000000000000000000009C
:10343000000080F0F8FC3E0E0303010101010306C9
:103440000E7CF8F0C000000000007FFFFFFFC0000E
:10345000000000000000000080C0FFFFFFFE000031
:1034600000000003070F0F1E1C1C1818181C0C0E60
:1034700007E3FFFFFF1F00000000000078F8F8F8E6
:103480000000000080C0E0F07C3F1F07010000004A
:103490000000000000000001010101010101000025
:1034A000000000000000000000000000000000001C
:1034B000000000000000000000000000000000000C
:1034C000000000000000000000E0F0F0F0F0E0007C
:1034D00000000000000000000000000000000000EC
:1034E00000000101010100000000000000000000D8
:1034F00000000000000000000000000000000000CC
:1035000000000000000000000000000000000000BB
:1035100000387C7C7C7C380000000000000000004B
:10352000000000000000000000000000000000009B
:1035300000000000000000005835000800000020D6
:103540005800000028010008B0350008580000208D
:1035500008070000440100080100000010000000FE
:10356000162B28170314011F1C1F1E1F1E1F1F1EB2
:103570001F1E1F00F82E0008F02E0008EC2E000879
:10358000042F0008F42E0008002F0008FC2E00086D
:10359000AE001040B081FFA1A6A83FC8D300D580DF
:1035A000D805D9F1DA12D8308D14AF000024F40018
:04000005080000ED02
:00000001FF
